{
  "contractName": "MyContract",
  "abi": [
    {
      "inputs": [],
      "stateMutability": "nonpayable",
      "type": "constructor"
    },
    {
      "anonymous": false,
      "inputs": [
        {
          "indexed": false,
          "internalType": "uint256[]",
          "name": "idproducto",
          "type": "uint256[]"
        },
        {
          "indexed": false,
          "internalType": "address",
          "name": "comprador",
          "type": "address"
        }
      ],
      "name": "Informacion_de_transaccion",
      "type": "event"
    },
    {
      "inputs": [],
      "name": "owner",
      "outputs": [
        {
          "internalType": "address payable",
          "name": "",
          "type": "address"
        }
      ],
      "stateMutability": "view",
      "type": "function",
      "constant": true
    },
    {
      "inputs": [
        {
          "internalType": "uint256",
          "name": "precio",
          "type": "uint256"
        },
        {
          "internalType": "uint256[]",
          "name": "ids",
          "type": "uint256[]"
        },
        {
          "internalType": "address",
          "name": "comprador",
          "type": "address"
        }
      ],
      "name": "pagarProducto",
      "outputs": [],
      "stateMutability": "payable",
      "type": "function",
      "payable": true
    }
  ],
  "bytecode": "0x608060405234801561001057600080fd5b5073a35a1a1337ca1668e654679e65237693cb404c536000806101000a81548173ffffffffffffffffffffffffffffffffffffffff021916908373ffffffffffffffffffffffffffffffffffffffff160217905550610602806100746000396000f3fe6080604052600436106100295760003560e01c80635d90e60c1461002e5780638da5cb5b1461004a575b600080fd5b61004860048036038101906100439190610381565b610075565b005b34801561005657600080fd5b5061005f61015c565b60405161006c9190610411565b60405180910390f35b8234146100b7576040517f08c379a00000000000000000000000000000000000000000000000000000000081526004016100ae906104af565b60405180910390fd5b60008054906101000a900473ffffffffffffffffffffffffffffffffffffffff1673ffffffffffffffffffffffffffffffffffffffff166108fc349081150290604051600060405180830381858888f1935050505015801561011d573d6000803e3d6000fd5b507ffdb9a4fca235ac99f0ce650fa821c2513c2f715eabd7c109065065f88d80b540828260405161014f92919061059c565b60405180910390a1505050565b60008054906101000a900473ffffffffffffffffffffffffffffffffffffffff1681565b6000604051905090565b600080fd5b600080fd5b6000819050919050565b6101a781610194565b81146101b257600080fd5b50565b6000813590506101c48161019e565b92915050565b600080fd5b6000601f19601f8301169050919050565b7f4e487b7100000000000000000000000000000000000000000000000000000000600052604160045260246000fd5b610218826101cf565b810181811067ffffffffffffffff82111715610237576102366101e0565b5b80604052505050565b600061024a610180565b9050610256828261020f565b919050565b600067ffffffffffffffff821115610276576102756101e0565b5b602082029050602081019050919050565b600080fd5b600061029f61029a8461025b565b610240565b905080838252602082019050602084028301858111156102c2576102c1610287565b5b835b818110156102eb57806102d788826101b5565b8452602084019350506020810190506102c4565b5050509392505050565b600082601f83011261030a576103096101ca565b5b813561031a84826020860161028c565b91505092915050565b600073ffffffffffffffffffffffffffffffffffffffff82169050919050565b600061034e82610323565b9050919050565b61035e81610343565b811461036957600080fd5b50565b60008135905061037b81610355565b92915050565b60008060006060848603121561039a5761039961018a565b5b60006103a8868287016101b5565b935050602084013567ffffffffffffffff8111156103c9576103c861018f565b5b6103d5868287016102f5565b92505060406103e68682870161036c565b9150509250925092565b60006103fb82610323565b9050919050565b61040b816103f0565b82525050565b60006020820190506104266000830184610402565b92915050565b600082825260208201905092915050565b7f456c2070726563696f206e6f20636f696e6369646520636f6e20656c2076616c60008201527f6f7220656e766961646f00000000000000000000000000000000000000000000602082015250565b6000610499602a8361042c565b91506104a48261043d565b604082019050919050565b600060208201905081810360008301526104c88161048c565b9050919050565b600081519050919050565b600082825260208201905092915050565b6000819050602082019050919050565b61050481610194565b82525050565b600061051683836104fb565b60208301905092915050565b6000602082019050919050565b600061053a826104cf565b61054481856104da565b935061054f836104eb565b8060005b83811015610580578151610567888261050a565b975061057283610522565b925050600181019050610553565b5085935050505092915050565b61059681610343565b82525050565b600060408201905081810360008301526105b6818561052f565b90506105c5602083018461058d565b939250505056fea2646970667358221220ea1d5722991a6985a698190914fb891f650427839026432e6b8f094f089c944164736f6c63430008130033",
  "immutableReferences": {},
  "source": "pragma solidity ^0.8.4;\r\n\r\ncontract MyContract {\r\n    address payable public owner;\r\n\r\n    constructor() public {\r\n        owner = payable(0xA35a1a1337ca1668E654679E65237693cB404c53);\r\n    }\r\n    event Informacion_de_transaccion(uint[] idproducto,address comprador);\r\n\r\n    function pagarProducto(uint precio, uint[] memory ids, address comprador) public payable {\r\n        require(msg.value == precio, \"El precio no coincide con el valor enviado\");\r\n        owner.transfer(msg.value);\r\n        emit Informacion_de_transaccion(ids,comprador);\r\n    }\r\n}",
  "sourcePath": "C:\\Users\\huals\\Desktop\\Personal\\UCO\\Sistemas de Informacion\\Proyectos\\Web Final\\TechZone-GPT\\src\\contracts\\contracts\\MyContract.sol",
  "compiler": {
    "name": "solc",
    "version": "0.8.19+commit.7dd6d404.Emscripten.clang"
  },
  "schemaVersion": "3.4.13",
  "updatedAt": "2023-05-14T13:44:48.521Z",
  "networkType": "ethereum",
  "devdoc": {
    "kind": "dev",
    "methods": {},
    "version": 1
  },
  "userdoc": {
    "kind": "user",
    "methods": {},
    "version": 1
  }
}