{
  "contractName": "MyContract",
  "abi": [
    {
      "inputs": [],
      "stateMutability": "nonpayable",
      "type": "constructor"
    },
    {
      "anonymous": false,
      "inputs": [
        {
          "indexed": false,
          "internalType": "uint256",
          "name": "idproducto",
          "type": "uint256"
        },
        {
          "indexed": false,
          "internalType": "address",
          "name": "comprador",
          "type": "address"
        }
      ],
      "name": "Informacion_de_transaccion",
      "type": "event"
    },
    {
      "inputs": [],
      "name": "owner",
      "outputs": [
        {
          "internalType": "address payable",
          "name": "",
          "type": "address"
        }
      ],
      "stateMutability": "view",
      "type": "function",
      "constant": true
    },
    {
      "inputs": [
        {
          "internalType": "uint256",
          "name": "precio",
          "type": "uint256"
        },
        {
          "internalType": "uint256",
          "name": "id",
          "type": "uint256"
        },
        {
          "internalType": "address",
          "name": "comprador",
          "type": "address"
        }
      ],
      "name": "pagarProducto",
      "outputs": [],
      "stateMutability": "payable",
      "type": "function",
      "payable": true
    }
  ],
  "bytecode": "0x608060405234801561001057600080fd5b5073a35a1a1337ca1668e654679e65237693cb404c536000806101000a81548173ffffffffffffffffffffffffffffffffffffffff021916908373ffffffffffffffffffffffffffffffffffffffff1602179055506103c8806100746000396000f3fe6080604052600436106100295760003560e01c80630be7c3be1461002e5780638da5cb5b1461004a575b600080fd5b61004860048036038101906100439190610219565b610075565b005b34801561005657600080fd5b5061005f61015c565b60405161006c919061028d565b60405180910390f35b8234146100b7576040517f08c379a00000000000000000000000000000000000000000000000000000000081526004016100ae9061032b565b60405180910390fd5b60008054906101000a900473ffffffffffffffffffffffffffffffffffffffff1673ffffffffffffffffffffffffffffffffffffffff166108fc349081150290604051600060405180830381858888f1935050505015801561011d573d6000803e3d6000fd5b507f6233b98a382042148ae0d930fb46e38ee422d9d8481e470f42c46f64fd1bc9a4828260405161014f929190610369565b60405180910390a1505050565b60008054906101000a900473ffffffffffffffffffffffffffffffffffffffff1681565b600080fd5b6000819050919050565b61019881610185565b81146101a357600080fd5b50565b6000813590506101b58161018f565b92915050565b600073ffffffffffffffffffffffffffffffffffffffff82169050919050565b60006101e6826101bb565b9050919050565b6101f6816101db565b811461020157600080fd5b50565b600081359050610213816101ed565b92915050565b60008060006060848603121561023257610231610180565b5b6000610240868287016101a6565b9350506020610251868287016101a6565b925050604061026286828701610204565b9150509250925092565b6000610277826101bb565b9050919050565b6102878161026c565b82525050565b60006020820190506102a2600083018461027e565b92915050565b600082825260208201905092915050565b7f456c2070726563696f206e6f20636f696e6369646520636f6e20656c2076616c60008201527f6f7220656e766961646f00000000000000000000000000000000000000000000602082015250565b6000610315602a836102a8565b9150610320826102b9565b604082019050919050565b6000602082019050818103600083015261034481610308565b9050919050565b61035481610185565b82525050565b610363816101db565b82525050565b600060408201905061037e600083018561034b565b61038b602083018461035a565b939250505056fea26469706673582212206fbd487ef1ccd9bfc65de28515f873f1b5083455f649c3c3c03a96c550d20caa64736f6c63430008130033",
  "immutableReferences": {},
  "source": "pragma solidity ^0.8.4;\r\n\r\ncontract MyContract {\r\n    address payable public owner;\r\n\r\n    constructor() public {\r\n        owner = payable(0xA35a1a1337ca1668E654679E65237693cB404c53);\r\n    }\r\n    event Informacion_de_transaccion(uint idproducto,address comprador);\r\n\r\n    function pagarProducto(uint precio, uint id, address comprador) public payable {\r\n        require(msg.value == precio, \"El precio no coincide con el valor enviado\");\r\n        owner.transfer(msg.value);\r\n        emit Informacion_de_transaccion(id,comprador);\r\n    }\r\n}",
  "sourcePath": "C:\\Users\\huals\\Desktop\\Personal\\UCO\\Sistemas de Informacion\\Proyectos\\Web Final\\TechZone-GPT\\src\\contracts\\contracts\\MyContract.sol",
  "compiler": {
    "name": "solc",
    "version": "0.8.19+commit.7dd6d404.Emscripten.clang"
  },
  "schemaVersion": "3.4.13",
  "updatedAt": "2023-05-13T15:43:35.722Z",
  "networkType": "ethereum",
  "devdoc": {
    "kind": "dev",
    "methods": {},
    "version": 1
  },
  "userdoc": {
    "kind": "user",
    "methods": {},
    "version": 1
  }
}